{
  "contractName": "PrintAddress",
  "abi": [
    {
      "anonymous": false,
      "inputs": [
        {
          "indexed": false,
          "name": "_owner",
          "type": "address"
        }
      ],
      "name": "Address",
      "type": "event"
    },
    {
      "constant": true,
      "inputs": [],
      "name": "getAddress",
      "outputs": [],
      "payable": false,
      "stateMutability": "view",
      "type": "function"
    }
  ],
  "bytecode": "0x6080604052348015600f57600080fd5b5060e98061001e6000396000f300608060405260043610603f576000357c0100000000000000000000000000000000000000000000000000000000900463ffffffff16806338cc4831146044575b600080fd5b348015604f57600080fd5b5060566058565b005b7febfb412ded3f9cdb15b75308503b279416e74d382f6ce86eedee0ef3130fa9e333604051808273ffffffffffffffffffffffffffffffffffffffff1673ffffffffffffffffffffffffffffffffffffffff16815260200191505060405180910390a15600a165627a7a72305820978faac2b8da82fbb688a50198dfae25d5b8f1b2107e36e17c141310d79a1a0e0029",
  "source": "pragma solidity ^0.4.23;\n\ncontract PrintAddress {\n   event Address(address _owner);\n   function getAddress() public view {\n      emit Address(msg.sender);\n   }\n}\n",
  "sourcePath": "/Users/ericwu/Desktop/Dexon/dApp/hello-dexon/contracts/PrintAddress.sol",
  "compiler": {
    "name": "dsolc",
    "version": "0.4.25+commit.433aebb7.Emscripten.clang"
  },
  "schemaVersion": "2.0.2",
  "updatedAt": "2018-12-14T11:36:21.278Z"
}